:10000000F9C000001BC1000019C1000017C10000A9
:1000100015C1000013C1000011C100000FC1000094
:100020000DC100000BC1000009C1000007C10000A4
:1000300005C1000003C1000001C10000FFC00000B5
:10004000FDC00000FBC00000F9C00000F7C00000C8
:10005000F5C00000F3C00000F1C00000EFC00000D8
:10006000EDC00000EBC00000E9C00000E7C00000E8
:10007000E5C00000E3C00000E1C00000DFC00000F8
:10008000DDC00000DBC00000D9C00000D7C0000008
:10009000D5C00000D3C00000D1C00000CFC0000018
:1000A000CDC00000CBC00000C9C00000C7C0000028
:1000B000C5C00000C3C00000C1C00000BFC0000038
:1000C000BDC00000BBC00000B9C00000B7C0000048
:1000D000B5C00000B3C00000B1C00000AFC0000058
:1000E000ADC00000ABC00000A9C00000A7C0000068
:1000F000A5C00000A3C00000A1C000009FC0000078
:100100009DC000009BC0000099C0000097C0000087
:1001100095C0000093C0000091C000008FC0000097
:100120008DC000008BC0000089C0000087C00000A7
:1001300085C0000083C0000081C000007FC00000B7
:100140007DC000007BC0000079C0000077C00000C7
:1001500075C0000073C0000071C000006FC00000D7
:100160006DC000006BC0000069C0000067C00000E7
:1001700065C0000063C0000061C000005FC00000F7
:100180005DC000005BC0000059C0000057C0000007
:1001900055C0000053C0000051C000004FC0000017
:1001A0004DC000004BC0000049C0000047C0000027
:1001B00045C0000043C0000041C000003FC0000037
:1001C0003DC000003BC0000039C0000037C0000047
:1001D00035C0000033C0000031C000002FC0000057
:1001E0002DC000002BC0000029C0000027C0000067
:1001F00025C0000011241FBECFEFCDBFDFE3DEBF5F
:1002000000E00CBF18BE19BE1ABE1BBE10E2A0E073
:10021000B0E2E4EBF8E000E00BBF02C007900D9203
:10022000A830B107D9F71BBE20E2A8E0B0E201C0B8
:100230001D92A233B207E1F7BFD23AC3E1CE0895CF
:100240008FEF809370008093710080937200809391
:10025000730080937400809375008093760061E052
:1002600081E490E039D0E0E5F0E0818184FD1BC0BD
:10027000818183FD0BC08BE482838FB7F8949081DA
:10028000986090838FBF818183FFFDCF8FB7F894F3
:10029000E0E5F0E094EC95839081906190838FBFCE
:1002A000818184FFFDCF64E080E490E015D08FB7BA
:1002B000F894E0E5F0E090819E7F90838FBF0895F1
:1002C0009FB7F894E82FF0E0E059FF4F60958081E8
:1002D000682360839FBF08951BBEFC0128ED24BFE7
:1002E000608308954F925F926F927F928F929F9258
:1002F000AF92BF92CF92DF92EF92FF920F931F9334
:10030000CF93DF93EC014A015B0128013901D90148
:10031000C801689412F8B695A79597958795169495
:10032000D1F7B901A801032E36E176956795579567
:1003300047953A95D1F7302D2C8122FD08C0B6950E
:10034000A7959795879576956795579547958815BD
:100350009905AA05BB0508F4A2C084169506A60651
:10036000B70608F49EC08C8182FD04C0880C991CDD
:10037000AA1CBB1CC301B201A501940177D22F3F77
:1003800031054105510508F48EC0C12CD12C7601F0
:10039000CA9419EF05C02C153D054E055F0568F0A0
:1003A000CC0CDD1CEE1CFF1C1D3F14F46894C0F83F
:1003B0001F5F173081F7212F4EC0212F11230CF022
:1003C0004AC0D501C401880F991FAA1FBB1F880FFF
:1003D000991FAA1FBB1F880F991FAA1FBB1F481A6E
:1003E000590A6A0A7B0A1E3FECF46DEF7FEF611B2E
:1003F000710917FD739504C0440C551C661C771CCD
:100400006A95D2F7D501C401B695A79597958795BA
:10041000BC01CD01640D751D861D971DA5019401BC
:1004200025D234C023E0210FD501C40104C0880FB8
:10043000991FAA1FBB1F2A95D2F79C01AD01B69543
:10044000A79597958795BC01CD01640D751D861DF7
:10045000971D0CD21BC02D5FD501C40104C0880FAD
:10046000991FAA1FBB1F2A95D2F79C01AD01B69513
:10047000A79597958795BC01CD01640D751D861DC7
:10048000971DF4D12150310941095109832F8F70F3
:100490001295107F182B1F832E8381E018C080E0F7
:1004A00016C080E014C0D501C401880F991FAA1F8F
:1004B000BB1F880F991FAA1FBB1F880F991FAA1F58
:1004C000BB1F481A590A6A0A7B0A19EF8ECFDF91BF
:1004D000CF911F910F91FF90EF90DF90CF90BF9041
:1004E000AF909F908F907F906F905F904F90089506
:1004F0000F931F93CF93DF93EC018B01009709F4C7
:1005000036C1803C910521F460E180E0D9DE2FC145
:10051000C03484E0D80721F468E080E0D1DE27C150
:10052000C115E4E0DE0721F464E080E0C9DE1FC10C
:10053000C038F1E0DF0721F462E080E0C1DE17C1DE
:10054000C11581E0D80721F461E080E0B9DE0FC178
:10055000C038E3E0DE0721F461E081E0B1DE07C1ED
:10056000C039F3E0DF0721F461E082E0A9DEFFC0DB
:10057000C11582E0D80721F462E081E0A1DEF7C076
:10058000C034E2E0DE0721F462E082E099DEEFC0F1
:10059000C115F3E0DF0721F464E081E091DEE7C0FC
:1005A000C03283E0D80721F464E082E089DEDFC056
:1005B000C115E8E0DE0721F461E083E081DED7C009
:1005C000C115F9E0DF0721F461E084E079DECFC0F6
:1005D000C1158AE0D80721F461E085E071DEC7C06B
:1005E000C115EBE0DE0721F461E086E069DEBFC003
:1005F000C034F8E0DF0721F462E083E061DEB7C0D9
:10060000C03489E0D80721F462E084E059DEAFC04D
:10061000C034EAE0DE0721F462E085E051DEA7C0E5
:10062000C034FBE0DF0721F462E086E049DE9FC0D2
:10063000C03988E0D80721F464E083E041DE97C048
:10064000C039E9E0DE0721F464E084E039DE8FC0E0
:10065000C039FAE0DF0721F464E085E031DE87C0CD
:10066000C0398BE0D80721F464E086E029DE7FC042
:10067000C03CE8E0DE0721F468E083E021DE77C0DB
:10068000C03CF9E0DF0721F468E084E019DE6FC0C8
:10069000C03C8AE0D80721F468E085E011DE67C03D
:1006A000C03CEBE0DE0721F468E086E009DE5FC0D5
:1006B000C03AF8E0DF0721F460E183E001DE57C0D3
:1006C000C03A89E0D80721F460E184E0F9DD4FC049
:1006D000C03AEAE0DE0721F460E185E0F1DD47C0E1
:1006E000C03AFBE0DF0721F460E186E0E9DD3FC0CE
:1006F000C03B88E0D80721F460E283E0E1DD37C049
:10070000C03BE9E0DE0721F460E284E0D9DD2FC0E0
:10071000C03BFAE0DF0721F460E285E0D1DD27C0CD
:10072000C03B8BE0D80721F460E286E0C9DD1FC042
:10073000C038E4E0DE0721F460E483E0C1DD17C0E7
:10074000C039F4E0DF0721F460E484E0B9DD0FC0D4
:10075000C03A84E0D80721F460E485E0B1DD07C049
:10076000C03BE4E0DE0719F460E486E0A9DD8D819A
:100770008F738D83F80194818581892B96819923CC
:1007800011F098E001C090E0892B8D83F801408141
:1007900051816281738100E014E224EF30E0CE01E8
:1007A000A1DD9C8198609C839C8190619C83DF91FA
:1007B000CF911F910F91089542DD42DD89E090E2D3
:1007C00004D026D080E090E00895CF93DF93FC0121
:1007D000C0EAD9E0C083D18314A213A216A215A245
:1007E00060E184E06DDD60E070E280EA99E080DE47
:1007F0008B818B838B8180618B83DF91CF91089577
:10080000E0EAF9E0918195FFFDCF8093A00908957A
:10081000CF93DF93CDB7DEB72597CDBFDEBF00EA1C
:1008200019E0CE0101966C01982EAD2CF801818162
:100830008823E4F781818823CCF7B12CF8018081EB
:10084000F601EB0DF11D8083B394F80181818823BB
:10085000ACF3BB2059F3E92CFA2CF70181917F010D
:10086000CFDF8E2D8C198B15C0F3E0CFA1E21A2EAD
:10087000AA1BBB1BFD010DC0AA1FBB1FEE1FFF1F44
:10088000A217B307E407F50720F0A21BB30BE40B94
:10089000F50B661F771F881F991F1A9469F76095DB
:1008A0007095809590959B01AC01BD01CF01089595
:0408B000F894FFCFEA
:0808B40000C201000300010075
:00000001FF
