:100000000EC026C0A6C024C024C022C021C020C06B
:1000100019C11EC01DC01CC01BC055C077C0112413
:100020001FBECFEDCDBF10E0A0E6B0E0E6EDF4E0FE
:1000300002C005900D92A036B107D9F710E0A0E6F6
:10004000B0E001C01D92AD38B107E1F739D141C22E
:10005000D7CF1F920F920FB60F9211248F938091DA
:10006000860083FF1CC08091860084FF18C08091A9
:10007000860085FD14C080918C008F5F80938C007A
:1000800080918C008531C8F080918600867C8093B9
:100090008600809186008260809386000EC08091E9
:1000A000860083FF0AC080918600867C809386004C
:1000B000809186008460809386008F910F900FBEA0
:1000C0000F901F9018951F920F920FB60F92112448
:1000D0002F933F934F935F936F937F938F939F9350
:1000E000AF93BF93EF93FF936BD1FF91EF91BF91CC
:1000F000AF919F918F917F916F915F914F913F91C0
:100100002F910F900FBE0F901F9018951F920F9276
:100110000FB60F9211242F933F934F935F936F93DA
:100120007F938F939F93AF93BF93EF93FF9352D19E
:10013000FF91EF91BF91AF919F918F917F916F91BF
:100140005F914F913F912F910F900FBE0F901F9095
:1001500018951F920F920FB60F9211242F933F9371
:100160008F939F93B19B1EC08091860083FF14C024
:100170008091860084FD10C08091860085FD0CC0B2
:10018000809186008061809386001FBC88B7846060
:1001900088BF10928C004DC080918600867C809331
:1001A000860047C08091860083FF3EC08091860014
:1001B00084FF3AC08091860085FD36C0809186001C
:1001C0008062809386008FB580938B0080918B0036
:1001D00090918C009C0122953295307F3227207FB0
:1001E0003227820F931F880F991F969587959295B6
:1001F00082958F7089279F70892790938C008093B8
:100200008B0080918C008093880080918B0080937C
:1002100087008091860081608093860080918600AF
:10022000817C8093860005C080918600867C8093C7
:1002300086009F918F913F912F910F900FBE0F904D
:100240001F9018951F920F920FB60F9211248F9343
:1002500085B180938A008F910F900FBE0F901F90F1
:1002600018951F93CF93DF93D62FC42F122F7DD0D5
:10027000812F7BD08D2F79D08C2F77D080918600E5
:100280008E7F80938600DF91CF911F910895109209
:100290008C0010928B00809186008860809386008D
:1002A00080918600897C80938600C39A82E48A9537
:1002B000F1F700C0C3981FBC88B7846088BF089559
:1002C00010928600109288001092870010928A0087
:1002D00081E43CD08AE080BF89B7846089BFBB9A43
:1002E000B99885B78C7F816085BF8BB780628BBFE3
:1002F000A99A82E287B98EE986B980E184BB7894B5
:1003000056D08823E9F341D080938900803839F4AE
:100310003699FECF8091860083FFB9DF369A8091AF
:100320008900803469F7809186006091880040914F
:10033000870020918A0095DFE3CF1092620010922F
:10034000630010926000109261000895CF93C82F4F
:10035000F4DFC0936500C29AC09ABA9AB89888EA46
:100360008DB980EF8EB9CF910895209161002F5FF4
:100370002F70909160002917E1F3E6E6F0E0E20FBC
:10038000F11D808320936100089590916200809117
:1003900063008917E1F3809162008F5F8F70809313
:1003A0006200E6E7F0E0E80FF11D8081089590918A
:1003B00062002091630081E0291709F480E008952C
:1003C0008EB110926400B89886B388EF8DB980EF33
:1003D0008EB9089580916400823009F455C083304D
:1003E00030F4882369F0813009F072C02DC0843068
:1003F00009F452C0843000F1853009F069C053C05F
:100400008FB1882331F09FB1969580916500981740
:1004100071F4789B04C081E08093640003C084E0A1
:10042000809364001FB8B89A8EE78EB9089588EA61
:100430008DB980E78EB908958FB1882329F088EAB5
:100440008DB980E78EB90895809160009091610028
:100450009817A9F0809160008F5F8F708093600083
:1004600080916000E6E6F0E0E80FF11D80818FB931
:1004700082E080936400B89A80E78EB9089588EA94
:100480008DB980E78EB9089583E080936400B898B1
:100490001FB88EE78EB9089585E080936400B89800
:1004A00080E78EB908958FB1909163009F5F9F7030
:1004B0009093630090916300E6E7F0E0E90FF11D8F
:1004C000808384E0809364001FB8B89A8EE78EB969
:0604D0000895F894FFCF2F
:00000001FF
