:10000000F9C000001BC1000019C1000017C10000A9
:1000100015C1000013C1000011C100000FC1000094
:100020000DC100000BC1000009C1000007C10000A4
:1000300005C1000003C1000001C10000FFC00000B5
:10004000FDC00000FBC00000F9C00000F7C00000C8
:10005000F5C00000F3C00000F1C00000EFC00000D8
:10006000EDC00000EBC00000E9C00000E7C00000E8
:10007000E5C00000E3C00000E1C00000DFC00000F8
:10008000DDC00000DBC00000D9C00000D7C0000008
:10009000D5C00000D3C00000D1C00000CFC0000018
:1000A000CDC00000CBC00000C9C00000C7C0000028
:1000B000C5C00000C3C00000C1C00000BFC0000038
:1000C000BDC00000BBC00000B9C00000B7C0000048
:1000D000B5C00000B3C00000B1C00000AFC0000058
:1000E000ADC00000ABC00000A9C00000A7C0000068
:1000F000A5C00000A3C00000A1C000009FC0000078
:100100009DC000009BC0000099C0000097C0000087
:1001100095C0000093C0000091C000008FC0000097
:100120008DC000008BC0000089C0000087C00000A7
:1001300085C0000083C0000081C000007FC00000B7
:100140007DC000007BC0000079C0000077C00000C7
:1001500075C0000073C0000071C000006FC00000D7
:100160006DC000006BC0000069C0000067C00000E7
:1001700065C0000063C0000061C000005FC00000F7
:100180005DC000005BC0000059C0000057C0000007
:1001900055C0000053C0000051C000004FC0000017
:1001A0004DC000004BC0000049C0000047C0000027
:1001B00045C0000043C0000041C000003FC0000037
:1001C0003DC000003BC0000039C0000037C0000047
:1001D00035C0000033C0000031C000002FC0000057
:1001E0002DC000002BC0000029C0000027C0000067
:1001F00025C0000011241FBECFEFCDBFDFE3DEBF5F
:1002000000E00CBF18BE19BE1ABE1BBE10E2A0E073
:10021000B0E2E8EFF9E000E00BBF02C007900D92FA
:10022000A830B107D9F71BBE20E2A8E0B0E201C0B8
:100230001D92AC30B207E1F7AFD3DCC3E1CECF9370
:100240006091082070910920C0E015C0818181343F
:1002500011F182818E3419F18381843421F18481FA
:100260008F3429F18581823531F18681813439F1EC
:10027000C73041F1BF0147E050E080EA99E07ED00D
:10028000E0910820F091092080818035F9F6CF5F58
:1002900081818134F1F6CF5F82818E34E9F6CF5FC0
:1002A00083818434E1F6CF5F84818F34D9F6CF5FC8
:1002B00085818235D1F6CF5F86818134C9F6CF5FE3
:1002C000C730C1F666E080EA99E0CF9157C360E19C
:1002D00084E048D060E070E280EA99E070C002D02B
:1002E00002D0F5CF089547E050E06FEF7FEF80E751
:1002F00090E079D361E081E490E05BD0809151009F
:1003000084FD13C08091510083FF1CC09FB7F894F7
:1003100084EC809355008091500080618093500060
:100320009FBF8091510084FFFCCF64E080E490E0A7
:1003300040D09FB7F894809150008E7F80935000FA
:100340009FBF08958BE4809352009FB7F8948091EB
:1003500050008860809350009FBF8091510083FFC0
:10036000FCCFD4CF9FB7F894E82FF0E0E059FF4FCF
:1003700060958081862380839FBF0895EF92FF92CE
:100380000F931F93CF93DF937C018B01EA0120979A
:1003900041F0C701FBD2F80181938F01219720978B
:1003A000C1F780E0DF91CF911F910F91FF90EF9007
:1003B00008951BBEFC0128ED24BF608308958F9231
:1003C0009F92AF92BF92CF92DF92EF92FF920F93E4
:1003D0001F93CF93DF93EC018B01009709F4C2C008
:1003E000803C910509F4ACC1803424E0920709F403
:1003F000ABC1811534E0930709F4AAC1803841E00C
:10040000940709F4A9C1811551E0950709F4A8C121
:10041000C03883E0D80709F4A7C1C03993E0D907F1
:1004200009F4A6C1C115A2E0DA0709F4A5C1C034D8
:10043000B2E0DB0709F4A4C1C115E3E0DE0709F46B
:10044000A3C1C032F3E0DF0709F4A2C1C11528E05F
:10045000D20709F4A1C1C11539E0D30709F4A0C13D
:10046000C1154AE0D40709F45FC1C1155BE0D507A7
:1004700009F49AC1C03488E0D80709F499C1C0349E
:1004800099E0D90709F498C1C034AAE0DA0709F461
:1004900097C1C034BBE0DB0709F496C1C039E8E07E
:1004A000DE0709F4C7C1C039F9E0DF0709F402C269
:1004B000C0392AE0D20709F403C2C0393BE0D307B0
:1004C00009F402C2C03C48E0D40709F403C2C03CAE
:1004D00059E0D50709F406C2C03C8AE0D80709F400
:1004E00007C2C03C9BE0D90709F410C2C03AA8E09B
:1004F000DA0709F411C2C03AB9E0DB0709F410C207
:10050000C03AEAE0DE0709F413C2C03AFBE0DF07B5
:1005100009F414C2C03B28E0D20709F415C2C03B5D
:1005200039E0D30709F416C2C03B4AE0D40709F406
:1005300003C1C03B5BE0D50709F410C2C03884E0BA
:10054000D80709F40FC2C03994E0D90709F40EC2E4
:10055000C03AA4E0DA0709F40DC2C03BB4E0DB07FF
:1005600009F4E6C08D818F738D83F80184819581B4
:10057000892B96819111D1C090E0892B8D83D80170
:10058000CD90DD90ED90FC908C8182FFBDC040E865
:1005900054E86EE170E003E010E020E030E04C153C
:1005A0005D056E057F0508F49BC0C016D106E20606
:1005B000F30608F495C08C8182FFB1C0812CB4E2AF
:1005C0009B2EB4EFAB2EB12CC501B401A70196014F
:1005D000E8D12F3F31054105510508F4F9C02F3FFF
:1005E000B1E03B074105510508F428C12F3FE3E086
:1005F0003E074105510508F461C12F3FF7E03F0771
:100600004105510508F464C12F3F8FE038074105CB
:10061000510508F463C12E3F9FE13907410551059B
:1006200008F45EC12C3FAFE33A074105510508F4D9
:100630005DC1283FBFE73B074105510508F45CC198
:10064000203FEFEF3E074105510508F463C1203E0E
:10065000FFEF3F07F1E04F07510508F465C1203C6B
:100660008FEF380783E04807510508F45FC1203851
:100670009FEF390797E04907510508F45DC121153F
:10068000AFEF3A07AFE04A07510508F45BC1211507
:100690003E4F4F41510508F45BC110E72AE030E0BE
:1006A000D701C60104C0880F991FAA1FBB1F2A9536
:1006B000D2F79C01AD01BC01CD0196958795779548
:1006C00067957C5D8B409F4F6CD12150310941096A
:1006D0005109832F8F70812B8F832E8381E001C07E
:1006E00080E09C8198609C839C8190619C83DF91D9
:1006F000CF911F910F91FF90EF90DF90CF90BF901F
:10070000AF909F908F90089540E452E46FE070E0C6
:1007100001E010E020E030E042CF98E02ECFCC0C9A
:10072000DD1CEE1CFF1C4ACF61E085E01BDE1ACF0A
:1007300060E486E017DE16CF60E285E013DE12CFBC
:1007400060E180E00FDE0ECF68E080E00BDE0ACFD4
:1007500064E080E007DE06CF62E080E003DE02CFE7
:1007600061E080E0FFDDFECE61E081E0FBDDFACEFE
:1007700061E082E0F7DDF6CE62E081E0F3DDF2CE0B
:1007800062E082E0EFDDEECE64E081E0EBDDEACE18
:1007900064E082E0E7DDE6CE61E083E0E3DDE2CE27
:1007A00061E084E0DFDDDECE61E086E0DBDDDACE35
:1007B00062E083E0D7DDD6CE62E084E0D3DDD2CE46
:1007C00062E085E0CFDDCECE62E086E0CBDDCACE52
:1007D000D701C601880F991FAA1FBB1F880F991F39
:1007E000AA1FBB1F880F991FAA1FBB1F881A990A2F
:1007F000AA0ABB0A10E929EF3FEF6DEF7FEF621BFA
:10080000730BA501940104C0220F331F441F551F11
:100810006A95D2F7CA01B90146015701B694A79467
:1008200097948794680D791D8A1D9B1DA7019601D9
:10083000B8D04FCF64E083E095DD94CE4AEF242F0B
:10084000332727FD3095142F1295107FD701C6014D
:10085000880F991FAA1FBB1F880F991FAA1FBB1FB4
:10086000880F991FAA1FBB1F812C74E2972E74EF6B
:10087000A72EB12C881A990AAA0ABB0A4E3F0CF47B
:10088000BCCF2D5F3F4FD701C60104C0880F991F11
:10089000AA1FBB1F2A95D2F79C01AD01BC01CD0157
:1008A0009695879577956795680D791D8A1D9B1D8F
:1008B00078D00FCF64E084E055DD54CE4BEFBFCF4E
:1008C00064E085E04FDD4ECE64E086E04BDD4ACE4D
:1008D0004CEFB5CF68E083E045DD44CE4DEFAFCFC0
:1008E0004EEFADCF68E084E03DDD3CCE4FEFA7CFCB
:1008F00068E085E037DD36CE10E0212F332727FD75
:1009000030952D5F3F4F1295107FCACE68E086E08C
:1009100029DD28CE11E0F1CF60E183E023DD22CE96
:1009200060E184E01FDD1ECE12E0E7CF13E0E5CFEB
:1009300060E185E017DD16CE14E0DFCF60E186E0F0
:1009400011DD10CE15E0D9CF60E283E00BDD0ACED9
:1009500016E0D3CF60E284E005DD04CE60E286E0FD
:1009600001DD00CE60E483E0FDDCFCCD60E484E0EA
:10097000F9DCF8CD60E485E0F5DCF4CDFC018181A3
:1009800085FFFDCF608380E090E00895FC018181C8
:1009900087FFFDCF80810895A2DC51DC80E090E0EC
:1009A0000895A1E21A2EAA1BBB1BFD010DC0AA1FB0
:1009B000BB1FEE1FFF1FA217B307E407F50720F0C8
:1009C000A21BB30BE40BF50B661F771F881F991F43
:1009D0001A9469F760957095809590959B01AC018C
:1009E000BD01CF010895DC0101C06D93415050401D
:0809F000E0F70895F894FFCF31
:0809F80080250000030000004F
:00000001FF
