:100000000C940F010C9435010C9435010C943501BE
:100010000C9435010C9435010C9435010C94350188
:100020000C9435010C9435010C9435010C94350178
:100030000C9435010C947C0A0C94B10A0C94350193
:100040000C9435010C9435010C9435010C94350158
:100050000C9435010C9435010C9435010C94350148
:100060000C9435010C9435010C9435010C94350138
:100070000C9435010C9435010C9435010C94350128
:100080000C9435010C9435010C9435010C94350118
:100090000C9435010C9435010C9435010C94350108
:1000A0000C9435010C9435010C9435010C943501F8
:1000B0000C9435010C9435010C9435010C943501E8
:1000C0000C9435010C9435010C9435010C943501D8
:1000D0000C9435010C9435010C9435010C943501C8
:1000E0000C9435010C9435010C9435010C943501B8
:1000F0000C9435010C9435010C9435010C943501A8
:100100000C9435010C9435010C9435010C94350197
:100110000C9435010C9435010C9435010C94350187
:100120000C9435010C9435010C9435010C94350177
:100130000C9435010C9435010C9435010C94350167
:100140000C9435010C9435010C9435010C94350157
:100150000C9435010C9435010C9435010C94350147
:100160000C9435010C9435010C9435010C94350137
:100170000C9435010C9435010C9435010C94350127
:100180000C9435010C9435010C9435010C94350117
:100190000C9435010C9435010C9435010C94350107
:1001A0000C9435010C9435010C9435010C943501F7
:1001B0000C9435010C9435010C9435010C943501E7
:1001C0000C9435010C9435010C9435010C943501D7
:1001D0000C9435010C9435010C9435010C943501C7
:1001E0000C9435010C9435010C9435010C943501B7
:1001F0000C9435011F051604200565049404D304EE
:100200001F0520051F050C9420050C9494040C94E4
:1002100016040C9465040C94D3040C941F0511244B
:100220001FBECFEFCDBFDFE3DEBF00E00CBF18BEC7
:1002300019BE1ABE1BBE10E2A0E0B0E2EEECFAE17D
:1002400000E00BBF02C007900D92A833B107D9F7A9
:100250001BBE21E2A8E3B0E201C01D92AB39B20798
:10026000E1F70E94180A0C94650D0C9400000F939E
:10027000CF93DF931F92CDB7DEB72FB72983F894C2
:100280001BBEFC0108ED04BF608389818FBF0F9006
:10029000DF91CF910F910895662311F090E201C094
:1002A00090E0842B892B8093520008956F71682B06
:1002B000E0E5F0E065830895E0E5F0E02081982F27
:1002C000909592239083908189230895682B81E4EF
:1002D00090E00C9437011F93CF93DF93182FC0E465
:1002E000D0E06881687F682B80E490E00E9437014D
:1002F00088818123DF91CF911F910895FC01208196
:10030000207F622B60830895FC012181287F622B6E
:1003100061830895FC0126812C7F622B66830895FA
:10032000FC01608371834863DB0111964C93A081CB
:10033000B18115962C930190F081E02D81E08483AA
:1003400008950F93CF93DF93FC01293050F50531C9
:1003500040F583A1811125C081E083A314A26283AB
:10036000DA018A2F841B821740F4ED01C41BD50BE0
:100370008D91CE0FDF1F8B83F4CF278F00A311A2A7
:1003800012A2878D882319F082818E7F05C080A1FB
:10039000882349F0828181600190F081E02D86837D
:1003A00002C080E001C081E0DF91CF910F910895FC
:1003B0000F9300E00E94A1010F910895FC01A0811C
:1003C000B18114968C91149782FF02C094E001C011
:1003D00093E094A3886014968C9313A20895CF930E
:1003E000DF93FC01978D80A1A081B18114962C919F
:1003F000149724FF05C083E013968C9385E01AC000
:1004000021A1291758F481A1EF01C80FD11D8B81BB
:1004100017968C9381A18F5F81A30EC092A198172C
:1004200028F48281816016968C9306C083E013962F
:100430008C9381E084A313A2DF91CF910895FC01F6
:1004400082A1A081B181843160F417968C9192A130
:10045000DF01A90FB11D1B968C9382A18F5F82A330
:1004600006C083E013968C9382E084A313A280A13C
:1004700092A1A081B181981720F482E013968C9309
:10048000089587E013968C9381E084A313A20895C6
:10049000DC01ED91FC912481322F3C7011F00C9421
:1004A000DE0126FD0C94EF0127FD0C941F0226E0CF
:1004B000FC0124A313A20895E0E6F6E088E085831A
:1004C000818384E08283E0EAF9E0138288E1848317
:1004D0008BE0858383E8868380ED87830895909100
:1004E000A10995FFFCCF8093A0090895836098ED42
:1004F00094BF809380008091820080FDFCCF08959E
:10050000FC01A0E0B6E082E08C9314968C931497E3
:100510001C92148215821282138210821182089515
:10052000809104068D7F809304064AE04A95F1F796
:1005300000C02AE030E080E090E0880F991F4091F1
:1005400004064260409304064AE04A95F1F700C071
:10055000409104064D7F409304064091080642FDF9
:1005600081604AE04A95F1F700C021503109211518
:10057000310519F72091040622602093040608959E
:100580009C01369527952115310519F0822793276F
:10059000F8CF08950F931F93CF93DF93EC01F89456
:1005A0000E9490028C0178940E94C0020A831B83EF
:1005B0008C839D8348E651E0849F9001859F300D98
:1005C000949F300D1124832F8695869588831982F8
:1005D000DF91CF911F910F91089580913C2080FF72
:1005E00005C080913C208E7F80933C2080913C20F0
:1005F00081FF05C080913C208D7F80933C208091BD
:100600003C2082FF05C080913C208B7F80933C2062
:1006100080913C2084FF0AC080913C208F7E809393
:100620003C208091C02080FF0E947C0880913C206B
:1006300085FF05C080913C208F7D80933C20809178
:100640003C2086FF05C080913C208F7B80933C201E
:1006500080913C2087FF19C080913C208F77809348
:100660003C2080915002909151028093D52090932C
:10067000D62080915202909153028093D320909380
:10068000D4208DEC90E20E94CA0280913C2083FF2E
:10069000A4CF80913C20877F80933C208091C02014
:1006A00080FD9BCF1092C5201092C6208091C02063
:1006B00081608093C020E091C320F091C4208081AC
:1006C0000E946F028ACF8091392090913A20019642
:1006D0008093392090933A20853F914014F0F8940C
:1006E000FFCF0895E4EEF0E2A5EEB0E221E08481D0
:1006F0009581009719F0019784839583868197816E
:10070000009719F0019786839783808591850097DC
:1007100019F001978087918784859585009719F056
:100720000197848795878081883039F48485958501
:10073000892B19F42083108611868081863031F44C
:1007400086819781892B11F48C918083808181111E
:1007500009C084819581892B29F41486158620830C
:10076000108611867F965F9681E2EF37F80709F0D1
:10077000BECF08959FE1899FD0011124FD01E95268
:10078000FF4D958D9F5F958FAA51BF4D9C919062B3
:100790009C9315862789308D218B328BE0917221B5
:1007A000F091732193E093838F5F08959091962148
:1007B000953028F49230D8F4992331F0089595308B
:1007C00019F09630A1F008959FE1899FF00111245E
:1007D000E952FF4D258936892230310540F096E0F7
:1007E0009587238D348D238B348B8F5F08950C94E4
:1007F000BA03AF92BF92DF92EF92FF920F931F93D3
:10080000CF93DF93D82EC82FD0E04FE1849FF00123
:100810001124E952FF4D458550E04930510508F05B
:100820000FC1FA01E650FF4F0C94380C8FE18C9FFA
:10083000F0018D9FF00D1124DF01AA51BF4D8C9165
:1008400080FF05C0E952FF4D83818111F9C080917D
:1008500095218111F5C08FE18C9F70018D9FF00C67
:100860001124870109521F4DD80114964D915C91B6
:10087000159721E012966C9182E791E20E94D801CF
:10088000F701EA51FF4D808181608F7D80838FE089
:1008900090E0F801818B928B85899689892B21F4D0
:1008A0008EE190E0858B968B8FE18C9FF0018D9F80
:1008B000F00D1124E952FF4D81E0868783E08587A2
:1008C00084E690E0818F928FBBC08091952181302A
:1008D000C9F48FE18C9FF0018D9FF00D1124E95236
:1008E000FF4D81899289892B09F0AAC08D2DDF9156
:1008F000CF911F910F91FF90EF90DF90BF90AF903D
:100900000C94BA038D2D0E94D603D82E8091962187
:10091000813009F095C04FE1D49EF0011124E952D5
:10092000FF4D84E085878BC080919521811188C01F
:100930008FE18C9F50018D9FB00C1124C50189520D
:100940009F4D7C01DC0114964D915C9115974F5F92
:100950005F4F19960C91199721E012966C9182E7DE
:1009600091E20E94A101F501EA51FF4D80818F7D46
:1009700080838FE090E0F701818B928B8589968947
:10098000892B21F48EE190E0858B968B8FE18C9FF3
:10099000F0018D9FF00D1124E952FF4D84E0868710
:1009A00085E085874DC080919521813009F491CFF4
:1009B0008D2D0E94D603D82E80919621813009F08A
:1009C0003FC020E030E0FFE1DF9EC0011124FC01C8
:1009D000E952FF4D8F01075F1F4FBF01695F7F4FD6
:1009E000D8014C9150E02417350774F4D901AE5862
:1009F000BE4D1B964C91EB01A881B981A20FB31F8C
:100A00004C932F5F3F4FECCF158A168AA781B08594
:100A10002C9123FF03C084E085870BC028E0258745
:100A20002C9120FF06C0FC01EA51FF4D80818860B7
:100A30008083D3941092392010923A2001C0D3942D
:100A40008D2DDF91CF911F910F91FF90EF90DF904F
:100A5000BF90AF900895AAEDB0E280E090E0E0E0B2
:100A60004FEF5FE1209138203C91321316C021E016
:100A70002E0FF0E0E35CFF4D8083E22FF0E0E35CBB
:100A8000FF4D4083589FF001599FF00D1124EA510A
:100A9000FF4D30813E7F3083E22F01965F96853097
:100AA000910501F70895209138202F5F243008F038
:100AB00021E030E05FE1E32FF0E0E35CFF4D808177
:100AC0008F3FC1F0A895589FC0011124FC01E95245
:100AD000FF4D4585413039F4FC01EA51FF4D8081DD
:100AE00080FD06C002C0442319F02091382002C0C6
:100AF0003F5FE1CF80913820281721F020933820E4
:100B00000C942B050895CF93DF93B82FA82F282F8F
:100B100030E02C5F3F4FC5E0DFE14A2F50E0241763
:100B2000350714F18A2F6C2F0E94180C892FD99F3A
:100B3000A0011124FA01E952FF4D9585692F677FC5
:100B400089F0963079F07381772379F060913820BD
:100B5000761308C0913049F4FA01EA51FF4D9081B3
:100B600090FF03C0AF5FD9CF8B2FDF91CF91089556
:100B7000CF93C82F8091C02082FF04C08091C020F5
:100B800080FD0FC08C2F0E9483059FE1899FF0019B
:100B90001124E952FF4D9081911103C00E94F90385
:100BA000C82F8C2F65E00E94180C892FCF910895D3
:100BB0008091C02080FF5BC08091C02081FD57C024
:100BC0008091C5209091C62001968093C520909376
:100BD000C6202091C5203091C6208091C7209091D9
:100BE000C8202817390788F48091A10985FF0DC016
:100BF0008091C5209091C620E091C320F091C4203F
:100C0000E80FF91F80810E946F028091C5209091AA
:100C1000C6206091C7207091C8200E94240C809348
:100C2000C5209093C6208091C5209091C620892B25
:100C3000F1F48091C0208E7F8093C0208091C020ED
:100C400082FD0BC08091C02083608093C02080E132
:100C500097E28093C1209093C2208091A109806285
:100C60008093A1098091A10980688093A109809156
:100C7000C02080FF28C08091C02081FF24C08091C7
:100C8000C1209091C220892BC9F08091A10987FFD2
:100C90001AC09091A0098091A10980688093A10950
:100CA0008091C020963061F08D7F8093C020E091CC
:100CB000C320F091C42080810C946F028091C020E9
:100CC0008C7F8093C0200895E091C320F091C420D0
:100CD000E80FF91F2AE0208301960895CF93DF9350
:100CE000E091C320F091C420E80FF91F30E3308376
:100CF000E091C320F091C420E80FF91F25E3218380
:100D0000E091C320F091C420E80FF91F20E2228374
:100D1000E091C320F091C420E80FF91F3383E091E4
:100D2000C320F091C420E80FF91F31E33483E09130
:100D3000C320F091C420E80FF91F2583E091C32060
:100D4000F091C420E80FF91FC3EDD0E2A881B9816A
:100D5000AA27BF70AB2FBB27AA5FBF4D2C9126835C
:100D6000A091C320B091C420A80FB91FE881F981D8
:100D7000E07FFF2734E0F695E7953A95E1F7EA5FE3
:100D8000FF4D208117962C93A091C320B091C420D1
:100D9000A80FB91FE881F981EF70FF27EA5FFF4DC7
:100DA000208118962C93E091C320F091C420E80F85
:100DB000F91FC5EDD0E2A881B981AA27BF70AB2F7A
:100DC000BB27AA5FBF4D2C912187A091C320B09172
:100DD000C420A80FB91FE881F981E07FFF2754E004
:100DE000F695E7955A95E1F7EA5FFF4D20811A964F
:100DF0002C93A091C320B091C420A80FB91FE88103
:100E0000F981EF70FF27EA5FFF4D20811B962C933D
:100E10000C96DF91CF910C946406CF93DF93E09111
:100E2000C320F091C420E80FF91F30E33083E09134
:100E3000C320F091C420E80FF91F26E32183E0913D
:100E4000C320F091C420E80FF91F20E22283E09133
:100E5000C320F091C420E80FF91F3383E091C32031
:100E6000F091C420E80FF91F32E33483E091C320EE
:100E7000F091C420E80FF91F2583E091C320F09181
:100E8000C420E80FF91FCDECD0E2A881B981AA27D0
:100E9000BF70AB2FBB27AA5FBF4D2C912683A091BB
:100EA000C320B091C420A80FB91FE881F981E07F69
:100EB000FF2774E0F695E7957A95E1F7EA5FFF4D35
:100EC000208117962C93A091C320B091C420A80F25
:100ED000B91FE881F981EF70FF27EA5FFF4D20819C
:100EE00018962C930996DF91CF910C946406CF93BA
:100EF000DF93A091C320B091C420A60FB71F9FE13C
:100F0000899FF0011124E952FF4DC181C295CF7034
:100F1000D0E0CA5FDF4D88818C93A091C320B0914F
:100F2000C420A60FB71FC181CF70D0E0CA5FDF4DCC
:100F3000888111968C93A091C320B091C420A60FF4
:100F4000B71F80E212968C93A091C320B091C42069
:100F5000A60FB71FC081C295CF70D0E0CA5FDF4D2A
:100F6000988113969C93A091C320B091C420A60FA2
:100F7000B71FC081CF70D0E0CA5FDF4D9881149653
:100F80009C93A091C320B091C420A60FB71F1596C3
:100F90008C93A091C320B091C420A60FB71FC2812B
:100FA000C295CF70D0E0CA5FDF4D988116969C93B2
:100FB000A091C320B091C420A60FB71FC281CF70EB
:100FC000D0E0CA5FDF4D988117969C93A091C32013
:100FD000B091C420A60FB71F18968C93A091C32080
:100FE000B091C420A60FB71FC785C295CF70D0E0BF
:100FF000CA5FDF4D988119969C93A091C320B09150
:10100000C420A60FB71FC785CF70D0E0CA5FDF4DE1
:1010100098811A969C93A091C320B091C420A60FEA
:10102000B71F1B968C93A091C320B091C420A60F2C
:10103000B71FC585C295CF70D0E0CA5FDF4D9881DC
:101040001C969C93A091C320B091C420A60FB71FFB
:10105000E585EF70F0E0EA5FFF4D90811D969C936F
:10106000E091C320F091C420E60FF71F8687CB01E3
:101070000F96DF91CF910895CF93DF9340E02FE15A
:10108000829FC001112489529F4D9C01275F3F4FD1
:10109000EC012796F9018081481750F5842F90E0E4
:1010A000E091C320F091C420E60FF71FA881B98119
:1010B000A80FB91FAC91A295AF70B0E0AA5FBF4D69
:1010C0005C9150836E5F7F4FE091C320F091C4200C
:1010D000E60FF71F3197A881B981A80FB91FAC910E
:1010E000AF70B0E0AA5FBF4D8C9180834F5FD2CFCD
:1010F000CB01DF91CF9108950F931F93CF93DF938F
:10110000E091C320F091C4208CE08083E091C32063
:10111000F091C4202AE02183E091C320F091C42003
:101120008091C7209091C8200797DC01AB2FBB2787
:10113000A295AF70AA5FBF4D3C913283DC01AA2714
:10114000BF70AB2FBB27AA5FBF4D3C913383DC013F
:10115000A07FBB2734E0B695A7953A95E1F7AA5F43
:10116000BF4D3C913483DC01AF70BB27AA5FBF4DFC
:101170008C918583268310E00FE1019FE00111240B
:10118000FE01E952FF4D62857385812F0E9477072A
:10119000BC01CA51DF4D888183FF0CC0877F8883E3
:1011A000812F0E943C08888183FF02C0115002C039
:1011B00080618883019FF0011124E952FF4D22854F
:1011C0003385215031098485A901480F511DCA0179
:1011D0000E9464061F5F153080F20E946E060E9416
:1011E0000D071092BE201092BF204091C720509151
:1011F000C820455051092091C3203091C420F901E5
:10120000BF01621B730B6417750760F4A1916091B5
:10121000BE207091BF206A0F711D6093BE20709335
:10122000BF20EECFF901E80FF91F4091BF20242F16
:1012300022952F7030E0D901AA5FBF4D2C912083F9
:10124000E091C320F091C420E80FF91FA091BE20C7
:10125000B091BF20AA27BF70AB2FBB27AA5FBF4D9D
:101260002C912183A091C320B091C420A80FB91F55
:10127000E091BE20F091BF20E07FFF27D4E0F695FB
:10128000E795DA95E1F7EA5FFF4D208112962C93FE
:10129000A091C320B091C420A80FB91FE091BE2037
:1012A000F091BF20EF70FF27EA5FFF4D208113967A
:1012B0002C93E091C320F091C420E80FF91F84E043
:1012C0008483DF91CF911F910F9108952F923F92C8
:1012D0004F925F926F927F928F929F92AF92BF9246
:1012E000CF92DF92EF92FF920F931F93CF93DF93F2
:1012F000CDB7DEB72597CDBFDEBF67ED70E280EEDC
:10130000C82E80E2D82E312CA12CB12C412C512C8E
:1013100097E0E92EF12C2224239424E030E840E4E5
:1013200054EF852E99249394E5E06E2E712CF201F2
:10133000E95EFF4D8081DB018C93850109521F4DD1
:101340008181D80112968C931297828113968C9387
:10135000139711963C921197FB01808181112DC04A
:1013600016962C92D6012C9384E090E02B833C833C
:101370004D8369837A830E943E0C69817A81FB01E7
:101380008783908781E090E069837A830E943E0C96
:1013900069817A81DB0114968D939C9315973C812A
:1013A000FC0130834D814183D8011D961C92FB01C5
:1013B000878A908E638E748E2B81DB0151961D92ED
:1013C0001C925297F801158E1786168E1A96ED927A
:1013D000FC921B97D6018C91880F805F8487E80E62
:1013E000F11CB3E04B0E511CEFE1AE0EB11C615E7F
:1013F0007F4F3394FFE1CF0ED11C85E0381297CF99
:10140000C7014C962596CDBFDEBFDF91CF911F91CE
:101410000F91FF90EF90DF90CF90BF90AF909F9093
:101420008F907F906F905F904F903F902F90089596
:10143000CF93DF9310923B201092C5201092C620CC
:101440000E94D10B0E9466098093C7209093C82008
:1014500081E0809338200E942B058091C7209091D5
:10146000C8200E943E0C8093C3209093C42080E04B
:1014700090E040E32091C7203091C8208217930765
:1014800048F4E091C320F091C420E80FF91F408395
:101490000196F0CFE1EEF0E2C6E2D0E230E3A091B7
:1014A000C320B091C42080819181A80FB91F3C93C3
:1014B0002991A091C320B091C42080819181A80F6F
:1014C000B91F11962C937F9681E2EC37F80739F714
:1014D000E091C320F091C4208CE08083E091C32090
:1014E000F091C42081E0818378940E94ED0280E035
:1014F00090E0DF91CF9108951F920F920FB60F9257
:10150000112408B60F9218BE09B60F9219BE0BB679
:101510000F921BBE2F933F934F935F936F937F93D5
:101520008F939F93AF93BF93EF93FF9382E791E2E3
:101530000E944802FF91EF91BF91AF919F918F91CF
:101540007F916F915F914F913F912F910F900BBEC3
:101550000F9009BE0F9008BE0F900FBE0F901F9006
:1015600018951F920F920FB60F92112408B60F9282
:1015700018BE09B60F9219BE0BB60F921BBE2F9361
:101580003F934F935F936F937F938F939F93AF930B
:10159000BF93EF93FF9380913C20816080933C2028
:1015A00080913B200E94B80580933B208091BC2015
:1015B0009091BD2080FD05C080913C208260809389
:1015C0003C208091BC209091BD208091BC209091C6
:1015D000BD2065E070E00E94240C892BB1F480915D
:1015E0003C20846080933C200E9472030E9453053B
:1015F0000E9463038091C1209091C220009729F03E
:1016000001978093C1209093C2208091BC2090913B
:10161000BD2069E170E00E94240C892B31F4809197
:101620003C20806180933C20A8958091BC209091C3
:10163000BD2062E370E00E94240C892B29F4809184
:101640003C20806280933C208091BC209091BD2002
:101650006AEF70E00E94240C892B29F480913C20D1
:10166000806480933C208091BC209091BD2064EFE9
:1016700071E00E94240C892B29F480913C20806821
:1016800080933C208091BC209091BD2068EE73E057
:101690000E94240C892B29F480913C20886080933F
:1016A0003C200E94D8058091BC209091BD200196DD
:1016B0008093BC209093BD202091BC203091BD2010
:1016C00081E090E0203543EC340710F480E090E0B6
:1016D00060E573EC869FA001879F500D969F500D8B
:1016E0001124C901841B950B8093BC209093BD20CD
:1016F000FF91EF91BF91AF919F918F917F916F91EA
:101700005F914F913F912F910F900BBE0F9009BEAB
:101710000F9008BE0F900FBE0F901F9018958091EC
:1017200050008160809350008091510080FFFCCF79
:1017300080E00E946B0160E080E00E94660188E02A
:101740000E945C0182E00E945C0184E00E945C01D6
:1017500080E10E945C0143E061E080E40E944C0172
:10176000809150008860809350008091510083FFE9
:10177000FCCF60E080E00E94660168E080EC0E949F
:1017800056018091500080618093500061E080E0BC
:101790000E9466018091510084FFFCCF84E00C948C
:1017A0006B010E948F0B80E00E9476028FE193E034
:1017B000E0E0F8E086A397A363E080E098E00E9471
:1017C000840161E080E098E00E948A0164E080E0AA
:1017D00098E00E947E010E945C0220ED40E460E8F7
:1017E00074E082E791E20E949001E0EAF0E08281F9
:1017F00081608283E0E2F6E014821082E0E4F2E0AD
:10180000808181608083118281818860818380E30F
:10181000828387E0848381E080A380A788E081A31E
:1018200088E181A780E483838DEC90E20C948002B0
:10183000991B79E004C0991F961708F0961B881F22
:101840007A95C9F780950895AA1BBB1B51E107C083
:10185000AA1FBB1FA617B70710F0A61BB70B881F40
:10186000991F5A95A9F780959095BC01CD010895CF
:10187000EE0FFF1F0590F491E02D1994CF93DF93A5
:101880008230910510F482E090E0E0919921F0918E
:101890009A2120E030E0A0E0B0E0309739F14081BB
:1018A000518148175907B8F04817590771F48281D8
:1018B0009381109729F012968D939C9313972CC0C7
:1018C0008093992190939A2127C02115310531F0F9
:1018D0004217530718F0A901DB0101C0EF019A017B
:1018E000BD01DF010280F381E02DD7CF2115310545
:1018F000F9F0281B390B2430310580F48A819B8153
:101900006115710521F0FB018283938304C08093EC
:10191000992190939A21FE01329644C0FE01E20F74
:10192000F31F8193919322503109288339833AC060
:101930002091972130919821232B41F4209102206E
:1019400030910320209397213093982120910020FB
:10195000309101202115310541F42DB73EB740915A
:10196000042050910520241B350BE0919721F09124
:101970009821E217F307A0F42E1B3F0B2817390715
:1019800078F0AC014E5F5F4F2417350748F04E0FDB
:101990005F1F40939721509398218193919302C0A8
:1019A000E0E0F0E0CF01DF91CF910895CF93DF9396
:1019B000009709F487C0FC01329712821382C0910C
:1019C0009921D0919A21209781F420813181280F8B
:1019D000391F80919721909198218217930779F56B
:1019E000E0939721F09398216DC0DE0120E030E074
:1019F000AE17BF0750F412964D915C9113979D015D
:101A00004115510509F1DA01F3CFA283B383408177
:101A10005181840F951F8A179B0771F48D919C91BA
:101A20001197840F951F02968083918312968D9152
:101A30009C911397828393832115310529F4E093B8
:101A40009921F0939A213EC0D9011296ED93FC930F
:101A500013974D915D91A40FB51FEA17FB0779F419
:101A600080819181840F951F0296D9018D939C935B
:101A700011978281938112968D939C931397E0E046
:101A8000F0E08A819B81009719F0FE01EC01F9CF0B
:101A9000CE01029628813981820F931F20919721D0
:101AA000309198212817390769F4309729F410925A
:101AB000992110929A2102C012821382C093972119
:0E1AC000D0939821DF91CF910895F894FFCF35
:101ACE0000009B212000303132333435363738391F
:101ADE0041424344454600008001008201008402D9
:101AEE0000860200880330313233343536373839C8
:081AFE0041424344454600004B
:00000001FF
