:100000000C940F010C9435010C9435010C943501BE
:100010000C9435010C9435010C9435010C94350188
:100020000C9435010C9435010C9435010C94350178
:100030000C9435010C94870B0C94BC0B0C9435017B
:100040000C9435010C9435010C9435010C94350158
:100050000C9435010C9435010C9435010C94350148
:100060000C9435010C9435010C9435010C94350138
:100070000C9435010C9435010C9435010C94350128
:100080000C9435010C9435010C9435010C94350118
:100090000C9435010C9435010C9435010C94350108
:1000A0000C9435010C9435010C9435010C943501F8
:1000B0000C9435010C9435010C9435010C943501E8
:1000C0000C9435010C9435010C9435010C943501D8
:1000D0000C9435010C9435010C9435010C943501C8
:1000E0000C9435010C9435010C9435010C943501B8
:1000F0000C9435010C9435010C9435010C943501A8
:100100000C9435010C9435010C9435010C94350197
:100110000C9435010C9435010C9435010C94350187
:100120000C9435010C9435010C9435010C94350177
:100130000C9435010C9435010C9435010C94350167
:100140000C9435010C9435010C9435010C94350157
:100150000C9435010C9435010C9435010C94350147
:100160000C9435010C9435010C9435010C94350137
:100170000C9435010C9435010C9435010C94350127
:100180000C9435010C9435010C9435010C94350117
:100190000C9435010C9435010C9435010C94350107
:1001A0000C9435010C9435010C9435010C943501F7
:1001B0000C9435010C9435010C9435010C943501E7
:1001C0000C9435010C9435010C9435010C943501D7
:1001D0000C9435010C9435010C9435010C943501C7
:1001E0000C9435010C9435010C9435010C943501B7
:1001F0000C94350114060B0515065A058905C8052A
:100200001406150614060C9414060C94C8050C94D8
:1002100089050C940B050C945A050C9415061124B1
:100220001FBECFEFCDBFDFE3DEBF00E00CBF18BEC7
:1002300019BE1ABE1BBE10E2A0E0B0E2ECEDF0E287
:1002400000E00BBF02C007900D92AE31B107D9F7A5
:100250001BBE21E2AEE1B0E201C01D92A832B2079E
:10026000E1F70E941A0B0C946C100C94000021E032
:10027000FC01238384819581861B91090895FC01EB
:10028000848191E09483AFEFB3E01197F1F700C060
:1002900000008483089592E09093CA01E82FF0E073
:1002A00084911092CA010895CF93DF93EC01C11598
:1002B00082E0D80759F480E20E944B0180930C023F
:1002C00081E20E944B0180930D0208C084E20E94EB
:1002D0004B018C8785E20E944B018D87DF91CF9186
:1002E00008950F93CF93DF931F92CDB7DEB72FB74B
:1002F0002983F8941BBEFC0108ED04BF608389814B
:100300008FBF0F90DF91CF910F910895662311F069
:1003100090E201C090E0842B892B809352000895D5
:100320006F71682BE0E5F0E065830895E0E5F0E0AB
:100330002081982F9095922390839081892308950E
:10034000682B81E490E00C9471011F93CF93DF93AD
:10035000182FC0E4D0E06881687F682B80E490E0CB
:100360000E94710188818123DF91CF911F910895AF
:10037000FC012081207F622B60830895FC01218194
:10038000287F622B61830895FC0126812C7F622BDC
:1003900066830895FC01608371834863DB011196D5
:1003A0004C93A081B18115962C930190F081E02DA2
:1003B00081E0848308950F93CF93DF93FC0129306C
:1003C00050F5053140F583A1811125C081E083A35B
:1003D00014A26283DA018A2F841B821740F4ED0194
:1003E000C41BD50B8D91CE0FDF1F8B83F4CF278FCE
:1003F00000A311A212A2878D882319F082818E7F1B
:1004000005C080A1882349F0828181600190F0813C
:10041000E02D868302C080E001C081E0DF91CF91B2
:100420000F9108950F9300E00E94DB010F91089552
:10043000FC01A081B18114968C91149782FF02C0B7
:1004400094E001C093E094A3886014968C9313A267
:100450000895CF93DF93FC01978D80A1A081B18196
:1004600014962C91149724FF05C083E013968C9367
:1004700085E01AC021A1291758F481A1EF01C80F06
:10048000D11D8B8117968C9381A18F5F81A30EC0A4
:1004900092A1981728F48281816016968C9306C0E9
:1004A00083E013968C9381E084A313A2DF91CF9114
:1004B0000895FC0182A1A081B181843160F4179676
:1004C0008C9192A1DF01A90FB11D1B968C9382A183
:1004D0008F5F82A306C083E013968C9382E084A38F
:1004E00013A280A192A1A081B181981720F482E08B
:1004F00013968C93089587E013968C9381E084A3E0
:1005000013A20895DC01ED91FC912481322F3C70FF
:1005100011F00C94180226FD0C94290227FD0C946E
:10052000590226E0FC0124A313A20895E0E6F6E0B8
:1005300088E08583818384E08283E0EAF9E01382A6
:1005400088E184838BE0858383E8868380ED8783DD
:1005500008959091A10995FFFCCF8093A00908957B
:10056000836098ED94BF809380008091820080FD2D
:10057000FCCF0895CF93DF931092000680E092E0C5
:100580000E945401C0E0D2E08981897E89838C81F8
:1005900087608C838A818F7C80628A83A0E2B2E04C
:1005A0008C91807E81608C93E8E2F2E08081807E95
:1005B0008160808388E011968C9388E181838B81B0
:1005C0008F7380648B8388818160888380E092E070
:1005D0000E943F01898188608983DF91CF910895CE
:1005E000DC01E0E8F6E080818260808384818260C3
:1005F0008483808180838081886080838481886017
:10060000848316961D921C9217971D921D921D921F
:100610001C92139714961D921C9215970895809121
:100620008406877F8093840645E14A95F1F70000B0
:1006300029E030E080E090E0409184064D7F4093D7
:1006400084064AE04A95F1F700C040918406426072
:10065000409384064AE04A95F1F700C0880F991F3D
:10066000409188064470842B2150310921153105B1
:1006700019F72091840628602093840608958F92AC
:100680009F92AF92BF92CF92DF92EF92FF92CF9361
:10069000DF934B015C0120E030E84DE153E40E9420
:1006A000100D6B017C0120E030E040E854E4C5010E
:1006B000B4010E94C80E20E030E044EB53E40E94F5
:1006C000790D20E030E040EE53E40E94100D0E94CE
:1006D000E10D4B015C01EB0120E030E0A901C70115
:1006E000B6010E94C40E87FD0CC020E030E044EB50
:1006F00053E4C701B6010E94750D181614F0C40129
:1007000017C020E030E0A901C701B6010E94750DB5
:1007100087FF02C0E401DC5F20E030E044EB53E4FB
:10072000C701B6010E94C40E18160CF4D450CE01B5
:10073000DF91CF91FF90EF90DF90CF90BF90AF907F
:100740009F908F900895CF92DF92EF92FF920F9338
:100750001F93CF93DF93EC01F8940E940F038C0159
:100760007894BC0180E090E00E94120E20E030E01E
:1007700044EB53E40E94C80E20E030E040E85AE326
:100780000E94C80E6B017C010E943F030C831D83F5
:10079000C882D982EA82FB828E839F83DF91CF91C8
:1007A0001F910F91FF90EF90DF90CF900895C4E0DC
:1007B0008091222080FF05C0809122208E7F80932F
:1007C00022208091222081FF05C0809122208D7FF0
:1007D000809322208091222082FF05C080912220D8
:1007E0008B7F809322208091222084FF0AC08091F9
:1007F00022208F7E809322208091A62080FF0E945D
:1008000093098091222085FF05C0809122208F7D51
:10081000809322208091222086FF05C08091222093
:100820008F7B809322208091222087FF21C080919E
:1008300022208F778093222060E080E292E00E9465
:100840003701805A91098093BD209093BE2060E0CB
:1008500088E292E00E943701805A91098093BB2080
:100860009093BC20F89481EB90E20E94A3037894CB
:100870008091222083FF9CCF80912220877F8093CC
:1008800022208091A62080FD93CFC093C5071092AF
:10089000AB201092AC208091A62081608093A6208E
:1008A000E091A920F091AA2080818093A00980CFB7
:1008B00080911F2090912020019680931F2090937B
:1008C0002020853F914014F0F894FFCF0895EEEC7E
:1008D000F0E2AFECB0E221E084819581009719F05D
:1008E00001978483958386819781009719F00197FA
:1008F0008683978380859185009719F0019780877B
:10090000918784859585009719F00197848795874D
:100910008081883039F484859585892B19F420836A
:10092000108611868081863031F486819781892BEB
:1009300011F48C9180838081811109C0848195811B
:10094000892B29F4148615862083108611867F96BC
:100950005F9681E2EC30F80709F0BECF08959FE181
:10096000899FD0011124FD01EF53FF4D958D9F5FAD
:10097000958FA053BF4D9C9190629C9315862789BB
:10098000308D218B328BE091FF20F091002193E09C
:1009900093838F5F089590912321953028F49230AE
:1009A000D8F4992331F00895953019F09630A1F0DC
:1009B00008959FE1899FF0011124EF53FF4D258990
:1009C00036892230310540F096E09587238D348DAD
:1009D000238B348B8F5F08950C94AF04AF92BF923A
:1009E000DF92EF92FF920F931F93CF93DF93D82E56
:1009F000C82FD0E04FE1849FF0011124EF53FF4D49
:100A0000458550E04930510508F00FC1FA01E65024
:100A1000FF4F0C943F0F8FE18C9FF0018D9FF00DE5
:100A20001124DF01A053BF4D8C9180FF05C0EF530F
:100A3000FF4D83818111F9C0809122218111F5C080
:100A40008FE18C9F70018D9FF00C112487010F5353
:100A50001F4DD80114964D915C91159721E0129687
:100A60006C918FEF90E20E941202F701E053FF4D6C
:100A7000808181608F7D80838FE090E0F801818BA1
:100A8000928B85899689892B21F48EE190E0858B64
:100A9000968B8FE18C9FF0018D9FF00D1124EF5309
:100AA000FF4D81E0868783E0858784E690E0818F33
:100AB000928FBBC0809122218130C9F48FE18C9F3D
:100AC000F0018D9FF00D1124EF53FF4D8189928924
:100AD000892B09F0AAC08D2DDF91CF911F910F9125
:100AE000FF90EF90DF90BF90AF900C94AF048D2DEE
:100AF0000E94CB04D82E80912321813009F095C02B
:100B00004FE1D49EF0011124EF53FF4D84E085871F
:100B10008BC080912221811188C08FE18C9F500170
:100B20008D9FB00C1124C5018F539F4D7C01DC01BA
:100B300014964D915C9115974F5F5F4F19960C91EC
:100B4000199721E012966C918FEF90E20E94DB01E1
:100B5000F501E053FF4D80818F7D80838FE090E031
:100B6000F701818B928B85899689892B21F48EE1FF
:100B700090E0858B968B8FE18C9FF0018D9FF00D1F
:100B80001124EF53FF4D84E0868785E085874DC0B3
:100B900080912221813009F491CF8D2D0E94CB04C8
:100BA000D82E80912321813009F03FC020E030E031
:100BB000FFE1DF9EC0011124FC01EF53FF4D8F01C7
:100BC000075F1F4FBF01695F7F4FD8014C9150E015
:100BD0002417350774F4D901A150BF4D1B964C91D1
:100BE000EB01A881B981A20FB31F4C932F5F3F4F38
:100BF000ECCF158A168AA781B0852C9123FF03C0FC
:100C000084E085870BC028E025872C9120FF06C053
:100C1000FC01E053FF4D808188608083D394109263
:100C20001F201092202001C0D3948D2DDF91CF91F1
:100C30001F910F91FF90EF90DF90BF90AF900895BC
:100C400080911E209091C42098130CC010922320F4
:100C50008FEF809324208091D0208E7F8093D020AE
:100C6000E1E001C0E0E080911E209091E320981324
:100C700011C0AE2FB0E0AD5DBF4D81E08C93EF5F52
:100C8000F0E0ED5DFF4D8FEF80838091EF208E7F50
:100C90008093EF20089520911E202F5F233008F0CD
:100CA00021E030E05FE1E32FF0E0ED5DFF4D80817A
:100CB0008F3FC1F0A895589FC0011124FC01EF534C
:100CC000FF4D4585413039F4FC01E053FF4D8081F3
:100CD00080FD06C002C0442319F020911E2002C0EE
:100CE0003F5FE1CF80911E20281721F020931E2026
:100CF0000C9420060895682F982F282F30E02F5F3E
:100D00003F4FAFE1492F50E024173507FCF0892F02
:100D10008170A89FA0011124FA01EF53FF4D758542
:100D2000B72FB77F89F0763079F0E381EE2379F041
:100D3000F0911E20EF1308C0713049F4FA01E0531E
:100D4000FF4D408140FF03C09F5FDCCF862F089599
:100D5000CF93C82F8091A62082FF04C08091A62047
:100D600080FD0FC08C2F0E947B069FE1899FF001C0
:100D70001124EF53FF4D9081911103C00E94EE04A6
:100D8000C82F8C2F8170CF9108958091A62080FF6D
:100D90005BC08091A62081FD57C08091AB209091CF
:100DA000AC2001968093AB209093AC202091AB2097
:100DB0003091AC208091AD209091AE20281739075A
:100DC00088F48091A10985FF0DC08091AB2090919E
:100DD000AC20E091A920F091AA20E80FF91F8081B2
:100DE0000E94A9028091AB209091AC206091AD202F
:100DF0007091AE200E942B0F8093AB209093AC207B
:100E00008091AB209091AC20892BF1F48091A620A9
:100E10008E7F8093A6208091A62082FD0BC08091BA
:100E2000A62083608093A62080E197E28093A7208C
:100E30009093A8208091A10980628093A10980915C
:100E4000A10980688093A1098091A62080FF2CC011
:100E50008091A62081FF28C08091A7209091A82092
:100E6000892BE9F08091A10987FF1EC09091A0090C
:100E70008091A10980688093A109963021F484E0D3
:100E80008093C6070CC08091A6208D7F8093A620FA
:100E9000E091A920F091AA2080810C94A902809170
:100EA000A6208C7F8093A62008954091A920509180
:100EB000AA20FA0120E030E00597BF01641B750B02
:100EC0006817790720F46191260F311DF6CFC9010B
:100ED0000895E091A920F091AA20E80FF91F2AE0D7
:100EE000208301960895CF93DF93E091A920F0919C
:100EF000AA20E80FF91F30E33083E091A920F09198
:100F0000AA20E80FF91F22E32183E091A920F091A4
:100F1000AA20E80FF91F20E22283E091A920F09196
:100F2000AA20E80FF91F3383E091A920F091AA20AD
:100F3000E80FF91F31E33483E091A920F091AA2052
:100F4000E80FF91F2583E091A920F091AA20E80F6E
:100F5000F91FCBEBD0E2A881B981AA27BF70AB2FD4
:100F6000BB27AA5FBF4D2C912683A091A920B091E9
:100F7000AA20A80FB91FE881F981E07FFF2734E09C
:100F8000F695E7953A95E1F7EA5FFF4D20811796D0
:100F90002C93A091A920B091AA20A80FB91FE88195
:100FA000F981EF70FF27EA5FFF4D208118962C939F
:100FB000E091A920F091AA20E80FF91FCDEBD0E233
:100FC000A881B981AA27BF70AB2FBB27AA5FBF4DED
:100FD0002C912187A091A920B091AA20A80FB91F18
:100FE000E881F981E07FFF2754E0F695E7955A956F
:100FF000E1F7EA5FFF4D20811A962C93A091A9207A
:10100000B091AA20A80FB91FE881F981EF70FF27DE
:10101000EA5FFF4D20811B962C930C96DF91CF91B8
:101020000C946907CF93DF93E091A920F091AA2057
:10103000E80FF91F30E33083E091A920F091AA2056
:10104000E80FF91F23E32183E091A920F091AA2062
:10105000E80FF91F20E22283E091A920F091AA2055
:10106000E80FF91F3383E091A920F091AA20E80F3F
:10107000F91F32E33483E091A920F091AA20E80F10
:10108000F91F2583E091A920F091AA20E80FF91F0C
:10109000A5EBB0E211964C911197242F22952F7059
:1010A00030E0E901CA5FDF4D28812683E091A92065
:1010B000F091AA20E80FF91FCD91DC911197CC2770
:1010C000DF70CD2FDD27CA5FDF4D28812783C091D8
:1010D000A920D091AA20C80FD91FED91FC9111979A
:1010E000E07FFF2774E0F695E7957A95E1F7EA5FF0
:1010F000FF4D20812887C091A920D091AA20C80F38
:10110000D91FED91FC91EF70FF27EA5FFF4D208121
:1011100029870A96DF91CF910C946907CF93DF93CB
:10112000A091A920B091AA20A60FB71F9FE1899F87
:10113000F0011124EF53FF4DC181C295CF70D0E073
:10114000CA5FDF4D88818C93A091A920B091AA201D
:10115000A60FB71FC181CF70D0E0CA5FDF4D888175
:1011600011968C93A091A920B091AA20A60FB71F29
:1011700080E212968C93A091A920B091AA20A60F8C
:10118000B71FC081C295CF70D0E0CA5FDF4D988194
:1011900013969C93A091A920B091AA20A60FB71FE7
:1011A000C081CF70D0E0CA5FDF4D988114969C93C8
:1011B000A091A920B091AA20A60FB71F15968C93D5
:1011C000A091A920B091AA20A60FB71FC281C295F5
:1011D000CF70D0E0CA5FDF4D988116969C93A091A6
:1011E000A920B091AA20A60FB71FC281CF70D0E06E
:1011F000CA5FDF4D988117969C93A091A920B0916A
:10120000AA20A60FB71F18968C93A091A920B09181
:10121000AA20A60FB71FC785C295CF70D0E0CA5FBE
:10122000DF4D988119969C93A091A920B091AA2096
:10123000A60FB71FC785CF70D0E0CA5FDF4D98817A
:101240001A969C93A091A920B091AA20A60FB71F2F
:101250001B968C93A091A920B091AA20A60FB71F2E
:10126000C585C295CF70D0E0CA5FDF4D98811C96CE
:101270009C93A091A920B091AA20A60FB71FE58545
:10128000EF70F0E0EA5FFF4D90811D969C93E09136
:10129000A920F091AA20E60FF71F8687CB010F96B1
:1012A000DF91CF910895CF93DF9340E02FE1829FAC
:1012B000C00111248F539F4D9C01275F3F4FEC01CC
:1012C0002796F9018081481750F5842F90E0E0912E
:1012D000A920F091AA20E60FF71FA881B981A80FD5
:1012E000B91FAC91A295AF70B0E0AA5FBF4D5C9101
:1012F00050836E5F7F4FE091A920F091AA20E60F06
:10130000F71F3197A881B981A80FB91FAC91AF70B1
:10131000B0E0AA5FBF4D8C9180834F5FD2CFCB01ED
:10132000DF91CF9108950F931F93CF93DF93E091B7
:10133000A920F091AA208CE08083E091A920F0916F
:10134000AA202AE02183E091A920F091AA2080918F
:10135000AD209091AE200797DC01AB2FBB27A29563
:10136000AF70AA5FBF4D3C913283DC01AA27BF70EA
:10137000AB2FBB27AA5FBF4D3C913383DC01A07F1D
:10138000BB2754E0B695A7955A95E1F7AA5FBF4DE4
:101390003C913483DC01AF70BB27AA5FBF4D8C91B9
:1013A0008583268310E00FE1019FE0011124FE01F7
:1013B000EF53FF4D62857385812F0E948E08BC011B
:1013C000C053DF4D888183FF0CC0877F8883812FC6
:1013D0000E945309888183FF02C0115002C08061BE
:1013E0008883019FF0011124EF53FF4D228533853F
:1013F000215031098485A901480F511DCA010E945D
:1014000069071F5F123080F20E9473070E94120862
:10141000EC018091AD209091AE200E945507809301
:10142000A4209093A520E091A920F091AA20EC0F90
:10143000FD1F892F82958F7090E0DC01AA5FBF4D60
:101440008C918083E091A920F091AA20EC0FFD1FE0
:10145000A091A420B091A520AA27BF70AB2FBB27D5
:10146000AA5FBF4D8C918183A091A920B091AA2041
:10147000AC0FBD1FE091A420F091A520E07FFF27D5
:1014800004E0F695E7950A95E1F7EA5FFF4D808164
:1014900012968C93A091A920B091AA20AC0FBD1FE9
:1014A000E091A420F091A520EF70FF27EA5FFF4DA7
:1014B000808113968C93E091A920F091AA20EC0FE3
:1014C000FD1F84E08483DF91CF911F910F910895D8
:1014D0002F923F924F925F926F927F928F929F9244
:1014E000AF92BF92CF92DF92EF92FF920F931F9332
:1014F000CF93DF93CDB7DEB72597CDBFDEBF61ECCD
:1015000070E28AECC82E80E2D82E312CA12CB12CAE
:10151000412C512C97E0E92EF12C2224239424E035
:1015200030E840E454EF852E99249394E5E06E2E44
:10153000712CF201E95EFF4D8081DB018C93850106
:101540000F531F4D8181D80112968C93129782817F
:1015500013968C93139711963C921197FB018081FF
:1015600081112DC016962C92D6012C9384E090E028
:101570002B833C834D8369837A830E94450F698165
:101580007A81FB018783908781E090E069837A8389
:101590000E94450F69817A81DB0114968D939C939B
:1015A00015973C81FC0130834D814183D8011D9604
:1015B0001C92FB01878A908E638E748E2B81DB01D7
:1015C00051961D921C925297F801158E1786168E11
:1015D0001A96ED92FC921B97D6018C91880F805F32
:1015E0008487E80EF11CB3E04B0E511CEFE1AE0E08
:1015F000B11C615E7F4F3394FFE1CF0ED11C82E0BE
:10160000381297CFC7014D962596CDBFDEBFDF912B
:10161000CF911F910F91FF90EF90DF90CF90BF90EF
:10162000AF909F908F907F906F905F904F903F9082
:101630002F900895109221201092AB201092AC2090
:101640000E94DC0C0E94680A8093AD209093AE202B
:1016500081E080931E200E9420068091AD20909111
:10166000AE200E94450F8093A9209093AA2080E08D
:1016700090E060E34091AD205091AE202091A920F0
:101680003091AA208417950730F4F901E80FF91F6B
:1016900060830196EFCFE091CB20F091CC20E20F58
:1016A000F31F20E32083E091A920F091AA208091EC
:1016B000CB209091CC20E80FF91F2183E091A92045
:1016C000F091AA208091EA209091EB20E80FF91F79
:1016D0002083E091A920F091AA208091EA209091A6
:1016E000EB20E80FF91F81E38183E091A920F091BD
:1016F000AA208CE08083E091A920F091AA2081E0CB
:10170000818378940E94D70380E090E008951F922F
:101710000F920FB60F92112408B60F9218BE09B699
:101720000F9219BE0BB60F921BBE2F933F934F9390
:101730005F936F937F938F939F93AF93BF93EF9339
:10174000FF938FEF90E20E948202FF91EF91BF9191
:10175000AF919F918F917F916F915F914F913F9149
:101760002F910F900BBE0F9009BE0F9008BE0F90E7
:101770000FBE0F901F9018951F920F920FB60F92E9
:10178000112408B60F9218BE09B60F9219BE0BB6F7
:101790000F921BBE2F933F934F935F936F937F9353
:1017A0008F939F93AF93BF93EF93FF9380912220EA
:1017B000816080932220809121200E94A80680933E
:1017C00021208091A2209091A32080FD05C08091CE
:1017D00022208260809322208091A2209091A320D9
:1017E0008091A2209091A32065E070E00E942B0FD1
:1017F000892BB1F4809122208460809322200E9462
:1018000067040E944B060E9458048091A720909183
:10181000A820009729F001978093A7209093A820F3
:101820008091A2209091A32069E170E00E942B0F8B
:10183000892B31F480912220806180932220A89509
:101840008091A2209091A32062E370E00E942B0F70
:10185000892B29F48091222080628093222080911C
:10186000A2209091A3206AEF70E00E942B0F892B99
:1018700029F4809122208064809322208091A220EC
:101880009091A32064EF71E00E942B0F892B29F423
:10189000809122208068809322208091A2209091C4
:1018A000A32068EE73E00E942B0F892B29F480910E
:1018B00022208860809322200E94C5068091A22069
:1018C0009091A32001968093A2209093A320209131
:1018D000A2203091A32081E090E0203543EC340732
:1018E00010F480E090E060E573EC869FA001879F94
:1018F000500D969F500D1124C901841B950B8093A8
:10190000A2209093A320FF91EF91BF91AF919F915F
:101910008F917F916F915F914F913F912F910F9098
:101920000BBE0F9009BE0F9008BE0F900FBE0F9018
:101930001F90189580915000816080935000809195
:10194000510080FFFCCF80E00E94A50160E080E0B4
:101950000E94A00188E00E94960182E00E94960108
:1019600084E00E94960180E10E94960143E061E0DC
:1019700080E40E948601809150008860809350002E
:101980008091510083FFFCCF60E080E00E94A001C5
:1019900068E080EC0E94900180915000806180930B
:1019A000500061E080E00E94A0018091510084FF1E
:1019B000FCCF84E00C94A5010E949A0C80E00E9468
:1019C000B0028FE193E0E0E0F8E086A397A363E044
:1019D00080E098E00E94BE0161E080E098E00E9413
:1019E000C40164E080E098E00E94B8010E94960281
:1019F00020ED40E460E874E08FEF90E20E94CA01BD
:101A0000E0EAF0E08281816082830E94BA0281EB89
:101A100090E20E94F00284E0E0ECF7E08183089518
:101A20005058BB27AA270ED075C166D130F06BD1B4
:101A300020F031F49F3F11F41EF45BC10EF4E095E9
:101A4000E7FB51C1E92F77D180F3BA17620773071B
:101A50008407950718F071F49EF58FC10EF4E09598
:101A60000B2EBA2FA02D0B01B90190010C01CA0158
:101A7000A0011124FF27591B99F0593F50F4503E03
:101A800068F11A16F040A22F232F342F4427585FF5
:101A9000F3CF469537952795A795F0405395C9F70D
:101AA0007EF41F16BA0B620B730B840BBAF09150C5
:101AB000A1F0FF0FBB1F661F771F881FC2F70EC064
:101AC000BA0F621F731F841F48F487957795679537
:101AD000B795F7959E3F08F0B3CF9395880F08F020
:101AE0009927EE0F979587950895D9D008F481E04E
:101AF00008950CD00FC107D140F0FED030F021F492
:101B00005F3F19F0F0C0511139C1F3C014D198F3FF
:101B10009923C9F35523B1F3951B550BBB27AA276E
:101B200062177307840738F09F5F5F4F220F331FE0
:101B3000441FAA1FA9F333D00E2E3AF0E0E830D0AC
:101B400091505040E695001CCAF729D0FE2F27D0AF
:101B5000660F771F881FBB1F261737074807AB077D
:101B6000B0E809F0BB0B802DBF01FF2793585F4FF2
:101B70002AF09E3F510568F0B6C000C15F3FECF30C
:101B8000983EDCF3869577956795B795F7959F5FB7
:101B9000C9F7880F911D9695879597F90895E1E00B
:101BA000660F771F881FBB1F621773078407BA076A
:101BB00020F0621B730B840BBA0BEE1F88F7E095C5
:101BC000089504D06894B111D9C00895BCD088F0AC
:101BD0009F5790F0B92F9927B751A0F0D1F0660F19
:101BE000771F881F991F1AF0BA95C9F712C0B13034
:101BF00081F0C3D0B1E00895C0C0672F782F882747
:101C0000B85F39F0B93FCCF3869577956795B39572
:101C1000D9F73EF490958095709561957F4F8F4FE1
:101C20009F4F0895E89409C097FB3EF490958095E6
:101C3000709561957F4F8F4F9F4F9923A9F0F92F92
:101C400096E9BB279395F695879577956795B79510
:101C5000F111F8CFFAF4BB0F11F460FF1BC06F5FF6
:101C60007F4F8F4F9F4F16C0882311F096E911C008
:101C7000772321F09EE8872F762F05C0662371F029
:101C800096E8862F70E060E02AF09A95660F771F3D
:101C9000881FDAF7880F9695879597F90895990F19
:101CA0000008550FAA0BE0E8FEEF16161706E80726
:101CB000F907C0F012161306E407F50798F0621B47
:101CC000730B840B950B39F40A2661F0232B242B1C
:101CD000252B21F408950A2609F4A140A6958FEF3B
:101CE000811D811D089597F99F6780E870E060E08D
:101CF00008959FEF80EC089500240A9416161706A5
:101D000018060906089500240A94121613061406EC
:101D100005060895092E0394000C11F4882352F04F
:101D2000BB0F40F4BF2B11F460FF04C06F5F7F4F07
:101D30008F4F9F4F089557FD9058440F551F59F0EE
:101D40005F3F71F04795880F97FB991F61F09F3FA8
:101D500079F087950895121613061406551FF2CFD1
:101D60004695F1DF08C0161617061806991FF1CF21
:101D700086957105610508940895E894BB27662748
:101D80007727CB0197F908958ADF08F48FEF08953C
:101D90000BD0C0CFB1DF28F0B6DF18F0952309F0E3
:101DA000A2CFA7CF1124EACFC6DFA0F3959FD1F32E
:101DB000950F50E0551F629FF001729FBB27F00DF9
:101DC000B11D639FAA27F00DB11DAA1F649F66274E
:101DD000B00DA11D661F829F2227B00DA11D621F9D
:101DE000739FB00DA11D621F839FA00D611D221F57
:101DF000749F3327A00D611D231F849F600D211D3B
:101E0000822F762F6A2F11249F5750408AF0E1F0DD
:101E100088234AF0EE0FFF1FBB1F661F771F881F26
:101E200091505040A9F79E3F510570F05CCFA6CF6E
:101E30005F3FECF3983EDCF3869577956795B79511
:101E4000F795E7959F5FC1F7FE2B880F911D96953B
:101E5000879597F90895AA1BBB1B51E107C0AA1FDC
:101E6000BB1FA617B70710F0A61BB70B881F991F3B
:101E70005A95A9F780959095BC01CD010895EE0F74
:101E8000FF1F0590F491E02D1994CF93DF938230DA
:101E9000910510F482E090E0E0912621F091272155
:101EA00020E030E0A0E0B0E0309739F1408151818E
:101EB00048175907B8F04817590771F48281938180
:101EC000109729F012968D939C9313972CC08093B2
:101ED00026219093272127C02115310531F0421783
:101EE000530718F0A901DB0101C0EF019A01BD0100
:101EF000DF010280F381E02DD7CF21153105F9F004
:101F0000281B390B2430310580F48A819B816115AF
:101F1000710521F0FB018283938304C08093262105
:101F200090932721FE01329644C0FE01E20FF31F79
:101F30008193919322503109288339833AC02091AB
:101F4000242130912521232B41F42091022030912E
:101F500003202093242130932521209100203091CB
:101F600001202115310541F42DB73EB740910420E1
:101F700050910520241B350BE0912421F09125215F
:101F8000E217F307A0F42E1B3F0B2817390778F050
:101F9000AC014E5F5F4F2417350748F04E0F5F1FAF
:101FA00040932421509325218193919302C0E0E036
:101FB000F0E0CF01DF91CF910895CF93DF930097A9
:101FC00009F487C0FC01329712821382C091262146
:101FD000D0912721209781F420813181280F391F4A
:101FE00080912421909125218217930779F5E09320
:101FF0002421F09325216DC0DE0120E030E0AE17F2
:10200000BF0750F412964D915C9113979D014115B5
:10201000510509F1DA01F3CFA283B38340815181E5
:10202000840F951F8A179B0771F48D919C911197CE
:10203000840F951F02968083918312968D919C91B7
:102040001397828393832115310529F4E093262188
:10205000F09327213EC0D9011296ED93FC9313977C
:102060004D915D91A40FB51FEA17FB0779F48081AC
:102070009181840F951F0296D9018D939C9311979E
:102080008281938112968D939C931397E0E0F0E008
:102090008A819B81009719F0FE01EC01F9CFCE01F6
:1020A000029628813981820F931F2091242130913B
:1020B00025212817390769F4309729F41092262131
:1020C0001092272102C012821382C0932421D09340
:0C20D0002521DF91CF910895F894FFCFF7
:1020DC00000028212000303132333435363738397E
:0E20EC00414243444546000082020086010046
:00000001FF
